:100000000C9446000C945D000C945D000C945D0013
:100010000C945D000C945D000C945D000C945D00EC
:100020000C945D000C945D000C945D000C945D00DC
:100030000C945D000C945D000C945D000C945D00CC
:100040000C945D000C945D000C945D000C945D00BC
:100050000C945D000C945D000C945D000C945D00AC
:100060000C945D000C945D000C945D000C945D009C
:100070000C945D000C945D000C945D000C945D008C
:100080000C945D000C945D000C945D0011241FBE67
:10009000CFEFD0E4DEBFCDBF11E0A0E0B1E0E8E3F8
:1000A000F2E000E00BBF02C007900D92AE30B10746
:1000B000D9F70E9488000C941A010C940000CF9389
:1000C000DF9300D01F92CDB7DEB789837B836A832D
:1000D00089818A3031F48A819B81BC018DE00E9444
:1000E0005F0080EC90E0FC018081882F90E08072BE
:1000F0009927892BB1F386EC90E02981FC012083BC
:1001000080E090E00F900F900F90DF91CF910895D5
:10011000CF93DF9300D000D0CDB7DEB78AE290E076
:10012000FC0110828BE290E02FEFFC01208384E23F
:1001300090E0FC01108285E290E021E0FC01208348
:1001400084E290E02EE0FC01208385E290E0FC0157
:1001500010821B821C82198289E290E0FC0180815E
:100160008B8383E290E0FC01808181708C831A8212
:100170008B81882F90E081709927892B19F08A81D3
:100180008E5F8A838B81882F90E082709927892BDC
:1001900019F08A818C5F8A838B81882F90E084702C
:1001A0009927892B19F08A81885F8A838B81882F10
:1001B00090E088709927892B19F08A81805F8A8363
:1001C0008B81882F90E080719927892B19F08A8183
:1001D000805E8A838B81882F90E080729927892B9B
:1001E00019F08A81805C8A838B81882F90E08074EB
:1001F0009927892B19F08A8180588A838C818130D4
:1002000019F48A818F5F8A838A81863010F419827B
:100210000BC08A81863418F484E0898305C08A8102
:10022000863410F082E0898385E290E02981FC0128
:08023000208392CFF894FFCF68
:0E02380000000002000000005F000000000057
:00000001FF
